{
  "_format": "hh-sol-artifact-1",
  "contractName": "SupplyChain",
  "sourceName": "contracts/Contract.sol",
  "abi": [
    {
      "inputs": [
        {
          "internalType": "string",
          "name": "_name",
          "type": "string"
        },
        {
          "internalType": "string",
          "name": "_location",
          "type": "string"
        },
        {
          "internalType": "enum SupplyChain.STAGE",
          "name": "_role",
          "type": "uint8"
        },
        {
          "internalType": "address",
          "name": "_wallet",
          "type": "address"
        }
      ],
      "name": "createParty",
      "outputs": [],
      "stateMutability": "nonpayable",
      "type": "function"
    },
    {
      "inputs": [
        {
          "internalType": "string",
          "name": "_item",
          "type": "string"
        }
      ],
      "name": "createProduct",
      "outputs": [
        {
          "internalType": "uint256",
          "name": "",
          "type": "uint256"
        }
      ],
      "stateMutability": "nonpayable",
      "type": "function"
    },
    {
      "inputs": [
        {
          "internalType": "address",
          "name": "_sender",
          "type": "address"
        },
        {
          "internalType": "address payable",
          "name": "_receiver",
          "type": "address"
        },
        {
          "internalType": "uint256",
          "name": "_productID",
          "type": "uint256"
        },
        {
          "internalType": "uint256",
          "name": "_price",
          "type": "uint256"
        },
        {
          "internalType": "string",
          "name": "_memo",
          "type": "string"
        }
      ],
      "name": "createTransaction",
      "outputs": [
        {
          "internalType": "uint256",
          "name": "",
          "type": "uint256"
        }
      ],
      "stateMutability": "payable",
      "type": "function"
    },
    {
      "inputs": [
        {
          "internalType": "address",
          "name": "_partyAddress",
          "type": "address"
        }
      ],
      "name": "getParty",
      "outputs": [
        {
          "components": [
            {
              "internalType": "address",
              "name": "wallet",
              "type": "address"
            },
            {
              "internalType": "string",
              "name": "name",
              "type": "string"
            },
            {
              "internalType": "string",
              "name": "location",
              "type": "string"
            },
            {
              "internalType": "enum SupplyChain.STAGE",
              "name": "role",
              "type": "uint8"
            },
            {
              "internalType": "uint256[]",
              "name": "productIDs",
              "type": "uint256[]"
            }
          ],
          "internalType": "struct SupplyChain.Party",
          "name": "",
          "type": "tuple"
        }
      ],
      "stateMutability": "view",
      "type": "function"
    },
    {
      "inputs": [
        {
          "internalType": "uint256",
          "name": "_productId",
          "type": "uint256"
        }
      ],
      "name": "getProduct",
      "outputs": [
        {
          "components": [
            {
              "internalType": "uint256",
              "name": "id",
              "type": "uint256"
            },
            {
              "internalType": "enum SupplyChain.STAGE",
              "name": "stage",
              "type": "uint8"
            },
            {
              "internalType": "string",
              "name": "item",
              "type": "string"
            },
            {
              "internalType": "uint256[]",
              "name": "history",
              "type": "uint256[]"
            }
          ],
          "internalType": "struct SupplyChain.Product",
          "name": "",
          "type": "tuple"
        }
      ],
      "stateMutability": "view",
      "type": "function"
    },
    {
      "inputs": [
        {
          "internalType": "uint256",
          "name": "_id",
          "type": "uint256"
        }
      ],
      "name": "getTransactionHistory",
      "outputs": [
        {
          "internalType": "uint256[]",
          "name": "",
          "type": "uint256[]"
        }
      ],
      "stateMutability": "view",
      "type": "function"
    },
    {
      "inputs": [
        {
          "internalType": "address",
          "name": "",
          "type": "address"
        }
      ],
      "name": "parties",
      "outputs": [
        {
          "internalType": "address",
          "name": "wallet",
          "type": "address"
        },
        {
          "internalType": "string",
          "name": "name",
          "type": "string"
        },
        {
          "internalType": "string",
          "name": "location",
          "type": "string"
        },
        {
          "internalType": "enum SupplyChain.STAGE",
          "name": "role",
          "type": "uint8"
        }
      ],
      "stateMutability": "view",
      "type": "function"
    },
    {
      "inputs": [
        {
          "internalType": "uint256",
          "name": "",
          "type": "uint256"
        }
      ],
      "name": "products",
      "outputs": [
        {
          "internalType": "uint256",
          "name": "id",
          "type": "uint256"
        },
        {
          "internalType": "enum SupplyChain.STAGE",
          "name": "stage",
          "type": "uint8"
        },
        {
          "internalType": "string",
          "name": "item",
          "type": "string"
        }
      ],
      "stateMutability": "view",
      "type": "function"
    },
    {
      "inputs": [
        {
          "internalType": "uint256",
          "name": "",
          "type": "uint256"
        }
      ],
      "name": "transactions",
      "outputs": [
        {
          "internalType": "uint256",
          "name": "id",
          "type": "uint256"
        },
        {
          "internalType": "address",
          "name": "sender",
          "type": "address"
        },
        {
          "internalType": "address",
          "name": "receiver",
          "type": "address"
        },
        {
          "internalType": "uint256",
          "name": "productID",
          "type": "uint256"
        },
        {
          "internalType": "uint256",
          "name": "price",
          "type": "uint256"
        },
        {
          "internalType": "string",
          "name": "memo",
          "type": "string"
        },
        {
          "internalType": "uint256",
          "name": "timestamp",
          "type": "uint256"
        }
      ],
      "stateMutability": "view",
      "type": "function"
    }
  ],
  "bytecode": "0x608060405234801561001057600080fd5b506110ab806100206000396000f3fe6080604052600436106100865760003560e01c8063896687af11610059578063896687af1461013f5780639ace38c214610152578063b9db15b414610185578063f692f5e7146101b2578063fb6f8243146101df57600080fd5b806302ec06be1461008b5780634f235207146100be5780637acc0b20146100ee57806385412a841461011d575b600080fd5b34801561009757600080fd5b506100ab6100a6366004610c3e565b61020c565b6040519081526020015b60405180910390f35b3480156100ca57600080fd5b506100de6100d9366004610c93565b610291565b6040516100b59493929190610d3c565b3480156100fa57600080fd5b5061010e610109366004610d82565b6103d7565b6040516100b593929190610d9b565b34801561012957600080fd5b5061013d610138366004610dc1565b610487565b005b6100ab61014d366004610e4e565b610512565b34801561015e57600080fd5b5061017261016d366004610d82565b610630565b6040516100b59796959493929190610ec4565b34801561019157600080fd5b506101a56101a0366004610d82565b610703565b6040516100b59190610f53565b3480156101be57600080fd5b506101d26101cd366004610d82565b610867565b6040516100b59190610fa9565b3480156101eb57600080fd5b506101ff6101fa366004610c93565b6108cc565b6040516100b59190610fbc565b600080423360405160200161023d92919091825260601b6bffffffffffffffffffffffff1916602082015260340190565b60408051808303601f19018152918152815160209283012060008181526001808552929020818155918201805460ff1916905585519093509091610288916002840191870190610ab9565b50909392505050565b600060208190529081526040902080546001820180546001600160a01b0390921692916102bd9061103a565b80601f01602080910402602001604051908101604052809291908181526020018280546102e99061103a565b80156103365780601f1061030b57610100808354040283529160200191610336565b820191906000526020600020905b81548152906001019060200180831161031957829003601f168201915b50505050509080600201805461034b9061103a565b80601f01602080910402602001604051908101604052809291908181526020018280546103779061103a565b80156103c45780601f10610399576101008083540402835291602001916103c4565b820191906000526020600020905b8154815290600101906020018083116103a757829003601f168201915b5050506003909301549192505060ff1684565b600160208190526000918252604090912080549181015460028201805460ff90921692916104049061103a565b80601f01602080910402602001604051908101604052809291908181526020018280546104309061103a565b801561047d5780601f106104525761010080835404028352916020019161047d565b820191906000526020600020905b81548152906001019060200180831161046057829003601f168201915b5050505050905083565b6001600160a01b038116600090815260208181526040909120855190916104b5916001840191880190610ab9565b5080546001600160a01b0319166001600160a01b03831617815560038101805484919060ff191660018360048111156104f0576104f0610d04565b0217905550835161050a9060028301906020870190610ab9565b505050505050565b600080423360405160200161054392919091825260601b6bffffffffffffffffffffffff1916602082015260340190565b60408051601f198184030181529181528151602092830120600081815260028085529290208181556001810180546001600160a01b03808e166001600160a01b0319928316179092559382018054918c1691909416179092556003820188905560048201879055855190935090916105c2916005840191870190610ab9565b504260068201556040516001600160a01b0388169086156108fc029087906000818181858888f193505050501580156105ff573d6000803e3d6000fd5b5050600085815260016020818152604083206003018054928301815583529091200181905590505b95945050505050565b600260208190526000918252604090912080546001820154928201546003830154600484015460058501805494966001600160a01b03908116969416949293919261067a9061103a565b80601f01602080910402602001604051908101604052809291908181526020018280546106a69061103a565b80156106f35780601f106106c8576101008083540402835291602001916106f3565b820191906000526020600020905b8154815290600101906020018083116106d657829003601f168201915b5050505050908060060154905087565b604080516080810182526000808252602082015260609181018290528181019190915260008281526001602081815260409283902083516080810190945280548452918201549083019060ff16600481111561076157610761610d04565b600481111561077257610772610d04565b81526020016002820180546107869061103a565b80601f01602080910402602001604051908101604052809291908181526020018280546107b29061103a565b80156107ff5780601f106107d4576101008083540402835291602001916107ff565b820191906000526020600020905b8154815290600101906020018083116107e257829003601f168201915b505050505081526020016003820180548060200260200160405190810160405280929190818152602001828054801561085757602002820191906000526020600020905b815481526020019060010190808311610843575b5050505050815250509050919050565b6000818152600160209081526040918290206003018054835181840281018401909452808452606093928301828280156108c057602002820191906000526020600020905b8154815260200190600101908083116108ac575b50505050509050919050565b6108d4610b3d565b6001600160a01b0380831660009081526020818152604091829020825160a0810190935280549093168252600183018054929392918401916109159061103a565b80601f01602080910402602001604051908101604052809291908181526020018280546109419061103a565b801561098e5780601f106109635761010080835404028352916020019161098e565b820191906000526020600020905b81548152906001019060200180831161097157829003601f168201915b505050505081526020016002820180546109a79061103a565b80601f01602080910402602001604051908101604052809291908181526020018280546109d39061103a565b8015610a205780601f106109f557610100808354040283529160200191610a20565b820191906000526020600020905b815481529060010190602001808311610a0357829003601f168201915b5050509183525050600382015460209091019060ff166004811115610a4757610a47610d04565b6004811115610a5857610a58610d04565b8152602001600482018054806020026020016040519081016040528092919081815260200182805480156108575760200282019190600052602060002090815481526020019060010190808311610843575050505050815250509050919050565b828054610ac59061103a565b90600052602060002090601f016020900481019282610ae75760008555610b2d565b82601f10610b0057805160ff1916838001178555610b2d565b82800160010185558215610b2d579182015b82811115610b2d578251825591602001919060010190610b12565b50610b39929150610b86565b5090565b6040518060a0016040528060006001600160a01b03168152602001606081526020016060815260200160006004811115610b7957610b79610d04565b8152602001606081525090565b5b80821115610b395760008155600101610b87565b634e487b7160e01b600052604160045260246000fd5b600082601f830112610bc257600080fd5b813567ffffffffffffffff80821115610bdd57610bdd610b9b565b604051601f8301601f19908116603f01168101908282118183101715610c0557610c05610b9b565b81604052838152866020858801011115610c1e57600080fd5b836020870160208301376000602085830101528094505050505092915050565b600060208284031215610c5057600080fd5b813567ffffffffffffffff811115610c6757600080fd5b610c7384828501610bb1565b949350505050565b6001600160a01b0381168114610c9057600080fd5b50565b600060208284031215610ca557600080fd5b8135610cb081610c7b565b9392505050565b6000815180845260005b81811015610cdd57602081850181015186830182015201610cc1565b81811115610cef576000602083870101525b50601f01601f19169290920160200192915050565b634e487b7160e01b600052602160045260246000fd5b60058110610d3857634e487b7160e01b600052602160045260246000fd5b9052565b6001600160a01b0385168152608060208201819052600090610d6090830186610cb7565b8281036040840152610d728186610cb7565b9150506106276060830184610d1a565b600060208284031215610d9457600080fd5b5035919050565b838152610dab6020820184610d1a565b6060604082015260006106276060830184610cb7565b60008060008060808587031215610dd757600080fd5b843567ffffffffffffffff80821115610def57600080fd5b610dfb88838901610bb1565b95506020870135915080821115610e1157600080fd5b50610e1e87828801610bb1565b935050604085013560058110610e3357600080fd5b91506060850135610e4381610c7b565b939692955090935050565b600080600080600060a08688031215610e6657600080fd5b8535610e7181610c7b565b94506020860135610e8181610c7b565b93506040860135925060608601359150608086013567ffffffffffffffff811115610eab57600080fd5b610eb788828901610bb1565b9150509295509295909350565b8781526001600160a01b03878116602083015286166040820152606081018590526080810184905260e060a08201819052600090610f0490830185610cb7565b90508260c083015298975050505050505050565b600081518084526020808501945080840160005b83811015610f4857815187529582019590820190600101610f2c565b509495945050505050565b602081528151602082015260006020830151610f726040840182610d1a565b50604083015160806060840152610f8c60a0840182610cb7565b90506060840151601f198483030160808501526106278282610f18565b602081526000610cb06020830184610f18565b602080825282516001600160a01b03168282015282015160a06040830152600090610fea60c0840182610cb7565b90506040840151601f19808584030160608601526110088383610cb7565b92506060860151915061101e6080860183610d1a565b60808601519150808584030160a0860152506106278282610f18565b600181811c9082168061104e57607f821691505b6020821081141561106f57634e487b7160e01b600052602260045260246000fd5b5091905056fea2646970667358221220e8aee0d983f40d38f2869001aa2c87f73cd353ed4afb967e522864158ba3206964736f6c63430008090033",
  "linkReferences": {},
  "deployedLinkReferences": {}
}